:020000040800F2
:100000000009002035020008BD340008D926000888
:100010004D2E0008911A00089D42000800000000C3
:10002000000000000000000000000000993A0008F5
:10003000111D00080000000029390008AD3B000830
:100040004F0200084F0200084F0200084F0200084C
:100050004F0200084F0200084F0200084F0200083C
:100060004F0200084F0200084F0200084F0200082C
:100070004F0200084F0200084F0200084F0200081C
:100080004F0200084F0200084F0200084F0200080C
:100090004F0200084F0200084F0200084F020008FC
:1000A0004F0200084F0200084F0200084F020008EC
:1000B000113C0008293D00084F0200084F020008CB
:1000C0004F0200084F0200084F0200084F020008CC
:1000D0004F020008414000088D4000084F02000810
:1000E0004F0200084F0200084F02000800F002F81B
:1000F00000F090F80AA090E8000C82448344AAF132
:100100000107DA4501D100F085F8AFF2090EBAE82F
:100110000F0013F0010F18BFFB1A43F0010318473B
:100120005C5A00007C5A0000103A24BF78C878C19D
:10013000FAD8520724BF30C830C144BF04680C60ED
:10014000704700000023002400250026103A28BF35
:1001500078C1FBD8520728BF30C148BF0B60704739
:100160006E2900F07682702900F0C183662904F0C0
:10017000C387652904F0C087672904F0BD8761291A
:10018000AFF3008003681B0A28BF41F08001692992
:1001900000F0C880642900F0C580752900F0C28095
:1001A0006F2900F04F83782900F08D83E92900F052
:1001B000E982E42900F0E682F52900F0E382EF29E4
:1001C00000F04C83F82900F08C830368DB0928BF1A
:1001D00041F08001632900F0F185732900F0F68574
:1001E000E32900F00186F32900F00686002070471D
:1001F0001FB500F053FE04000020002104F04AF96E
:10020000401C60600020002104F02EF9E0601FBD5A
:1002100010B510BD00F014FE1146FFF7E9FF04F021
:10022000D5F800F0EDFE03B4FFF7F2FF03BC00F0D9
:1002300031FF00000948804709480047FEE7FEE714
:10024000FEE7FEE7FEE7FEE7FEE7FEE7FEE7FEE786
:1002500004480549054A064B70470000B13B0008B9
:10026000ED00000800030020000900200005002028
:10027000000500207CB51D4616460C00009001D0FC
:100280002044401E074B7B442A4669460190304675
:1002900000F0F9F905461CB10020694600F006FAA5
:1002A00028467CBD2D0400000FB41CB5084B06AADF
:1002B0007B4469460090059800F0E5F9044600206B
:1002C000694600F0F3F920461CBC5DF814FB000001
:1002D000F903000070B5044685690068C10601D5C0
:1002E000302600E02026C00707D070BDD4E90121E8
:1002F00030469047206A401C20626D1EF6D570BDC6
:1003000070B5044685690078C00707D170BDD4E98F
:10031000012120209047206A401C20626D1EF6D5E6
:1003200070BD00002DE9F0410646002410687529D3
:10033000314616A510D000F0F8F8002802DA404245
:1003400013A507E031688A0701D512A502E0490725
:1003500004D511A5012401E000F0F0F800210A22E3
:1003600006F1240709E0B0FBF2FCB0FBF2F302FB5C
:100370001C00303078541846491C0028F3D123461D
:100380002A463046BDE8F04100F00AB900000000FE
:100390002D0000002B000000200000002DE9F05F80
:1003A000894604464FF0000ADFF874B1FB44C0F8F8
:1003B00020A02046E1688847002874D0252806D070
:1003C000D4E901219047206A401C2062F1E7002611
:1003D0005F462046E16888472028054607DB312D27
:1003E00005D2781910F8200C08B10643F1E7B007E0
:1003F00001D526F00406C4F81CA00027C4F818A0F4
:100400002A2D09D0284603F0D9FF38B304EB87081A
:10041000303DC8F8185019E059F8041B204604EB89
:1004200087029161E1688847012F054618D1E0698C
:10043000002820DA26F020061DE0D8F8180000EB8E
:10044000800005EB40003038C8F818002046E1680D
:100450008847054603F0B2FF0028EED1012F0AD0ED
:100460002E2D08D12046E16888477F1C0546022FC3
:1004700046F02006C4DBA069002803DA404246F0BB
:100480000106A061F00701D026F010066C2D0BD0FC
:10049000682D09D04C2D39D06A2D35D0742D35D02A
:1004A0007A2D33D016E038E0E1682F4620468847A1
:1004B000B842054609D16C2F26D04FF48060E16820
:1004C000064320468847054604E06C2F1AD04FF4B7
:1004D000807006430DB3A5F14100192802D82035DC
:1004E00046F400664A462946204626604E46FFF7F7
:1004F00037FE80B101280BD0F61D26F0070000F171
:10050000080956E74020E4E78020D8E70020D6E736
:1005100006F104094DE7284652E7206ABDE8F09F3E
:10052000F456000070477047704709684A0501D5C6
:1005300040B27047C905FCD500B2704709684A054A
:1005400001D5C0B27047C905FCD580B2704770B5FF
:100550000C460546012A05D02878800600D5EA69B0
:10056000002302E0012305E05B1C934202D2E05C21
:100570000028F9D1A869E618C01AA861286A1844A9
:1005800028622846FFF7A6FE04E0D5E9012114F809
:10059000010B9047B442F8D32846FFF7B1FE70BD77
:1005A0002DE9F0470D4699469246044600F124088D
:1005B0000168880604D5E06921F01001216000E09F
:1005C0000120A84201DD471B00E00027A1697A193C
:1005D00002EB0900081AA0612078C00602D4204668
:1005E000FFF778FE002608E0D4E901211AF806009A
:1005F0009047206A401C761C20624E45F4DB207830
:10060000C0060AD52046FFF765FE06E0D4E90121C1
:1006100030209047206A401C2062381EA7F1010755
:10062000F4DC07E0D4E9012118F805009047206ABE
:10063000401C2062281EA5F10105F3DC2046FFF7CF
:100640005FFE2078000602D50220BDE8F087012079
:10065000FBE711680268006A530501D508700AE0DB
:10066000D30501D5088006E0130603D5C217C1E9FA
:10067000000200E0086001207047000001694A1C88
:1006800002610878704700B58FB0CDE901310021D3
:10069000059105497944CDE9031011466846FFF7F5
:1006A0007DFE0FB000BD0000E5FFFFFF0A6802F805
:1006B000010B0A607047D1E900239A4202D2531C11
:1006C0000B601070704700002DE9FF5F15468A46E9
:1006D0000446DFF8AC80F8440027D8E900103E4615
:1006E000CDE9001010E03AF816106A4602A800F0B2
:1006F00087FB411C07D02178890603D5E2693918A8
:1007000091420DD80744761C2078800602D5E06916
:10071000B84205DDAE42E6DB3AF816000028E2D129
:10072000A069C01BA0612046FFF7D4FDD8E90010E6
:10073000CDE90010002017E03AF818106A4602A828
:1007400000F05EFBB0F1FF3F81460BD000250DF1BC
:10075000080B05E0D4E901211BF8050090476D1C4A
:100760004D45F7D308F10100B0428046E4DB206A32
:10077000384420622046FFF7C3FDBDE8FF9F00001C
:10078000DE5300002DE9F0418046D21D22F0070221
:100790000025D2E90002F52915A614D0011E72F138
:1007A000000106DA0023D0EB030063EB020211A67E
:1007B00008E0D8F800108B0701D50FA602E0490722
:1007C00001D50EA601251146002408F1240704E0F6
:1007D00000F098F830323A55641C50EA0102F7D123
:1007E0002B46324621464046BDE8F041FFF7D8BED1
:1007F000000000002D0000002B0000002000000081
:1008000030B4002100F1240408E002F00705D2080A
:10081000303542EA4372DB086554491C52EA03054D
:10082000F3D10468002310A2250708D504F02004A2
:100830000C4304D0C46901230CA2641EC46130BC03
:10084000FFF7AEBE10B5044621461068FFF776FEEE
:1008500002462046BDE810400023D1E7D21D22F019
:100860000701D1E90023CBE70000000030000000C1
:10087000F0B40D460188090502D5214C7C4402E004
:100880001F4C7C440E34002100F1240608E002F0E5
:100890000F071209E75D42EA03721B097754491CEE
:1008A00052EA0307F3D102780023120704D5702D12
:1008B00006D009B1022311342246F0BCFFF770BE06
:1008C00001231034F8E770B504460D462146106840
:1008D000FFF734FE024629462046BDE8704000235B
:1008E000C6E7D21D22F00703D3E90023C0E703685F
:1008F000126843F0200303600823C3610023B7E7B5
:100900004052000030B5B0F10A024FEA900E71F18A
:1009100000034EEA817EB0EB0E0061EB91014FEADD
:10092000101E4EEA017E10EB0E0041EB11114FEA52
:10093000102E4EEA016E10EB0E0041EB11214FEA32
:10094000104E4EEA014E10EB0E0041EB11414018E3
:1009500041F100014FEAD00040EA41704FEAD10175
:1009600010EB80054FEA810444EA907444EB0104E3
:100970006D1944EB0404521BA3414FF0000348BF20
:100980000A3200D530BD401C41F1000130BD704736
:100990002DE9FF4F0C461E464FF0FF378BB0D2E9D2
:1009A0000001DDF860800A908A46C1F30A5505B956
:1009B0003D46002108464FF00000BAF1000F00F458
:1009C000400005DA00EB80004FF4400101EA5000DE
:1009D0004FEA9059B9F1010F00DDB9460A9850EA83
:1009E0004A000ED044F61050A5F2FF3545432F14AF
:1009F000B8F1000F1ED07542291E1EDDC9F100029C
:100A00001CE0B8F1010F4FF0000001D0302103E0ED
:100A1000F24305E02154401CB042FBDB304600228B
:100A2000002121540B99C1F80880C1E900200FB0C2
:100A3000BDE8F08FBD1B6D1CDEE74A4600DA694257
:100A400006A800F06FFA06AB93E8070003AB83E853
:100A5000070050460A9900F024FB8DE80700A0F536
:100A600000501F3800900398002D09DD42F21F014D
:100A70004A46084403A90390684600F083FD08E055
:100A8000A0F500504A461F3803A90390684600F0BD
:100A90008DFD8DE807000004000C03D04FF0FF30FF
:100AA000410800E01046B8F1000F03D00022009288
:100AB00015461EE0751E05D4FFF724FF303262553F
:100AC0006D1EF9D5B3460122084302D000227F1CD7
:100AD00004E02078302801D100227F1E002A0997E7
:100AE00086D01DE0112D07DAFFF70CFF303262557A
:100AF0006D1C50EA0102F5D1084302D00098C8B13C
:100B00000EE00021681E05E0235C625C6354225401
:100B1000401E491C8142F7DBAB46A81B401E0990D2
:100B2000002004F80B000B98099AC0F80880C0E96F
:100B3000002B7CE711264FF0000859E72DE9F04F14
:100B400088460446D21D22F0070191B0D1E9000188
:100B5000CDE90A0103F01EFC02460B98C00F01D03C
:100B60002D2007E02068810701D52B2002E02021FD
:100B700001EAC000032A099001D0072A05DB0346D9
:100B80004146204600F08EF90BE12078800601D521
:100B9000E06900E00620B8F1650F814606D0B8F1A3
:100BA000660F18D0B8F1670F70D131E00020B9F1AD
:100BB000110F009001DB112301E009F101030AAAE2
:100BC00001A90CA8FFF7E4FEDDE90C70002609F18D
:100BD0000105834647E001204B4600904FF0004757
:100BE0000AAA01A90CA8FFF7D3FEDDE90DB00C9904
:100BF0005D46002610B909F101000D18B9EB05009A
:100C000003D4C0F1FF3609F10105A5EB09002BE083
:100C1000B9F1010F01DA4FF001090020B9F1110F0C
:100C20000090484601DD112300E003460AAA01A90D
:100C30000CA8FFF7ADFEDDE90C704D46002683469B
:100C4000207800070AD4AB4500DA5D4601A8012DE3
:100C500004DD411911F8011C302907D04F4502DA93
:100C600017F1040F04DA012082460FE06D1EEEE753
:100C7000002F02DCED1B3E4403E0781CA84200DD9F
:100C80007D1CB81B00F1010A4FF0004720780007D7
:100C900003D4AA4501DB4FF0FF3A0021B7F1004F22
:100CA0000DF143088DF8431024D002202B23002F90
:100CB00001DA7F422D230A21021EA0F1010000DC8F
:100CC0005FB197FBF1FC97FBF1F201FB1C7C17462F
:100CD0000CF1300C08F801CDEEE7A8F1010003702B
:100CE0002188090501D5452100E06521A0F1010811
:100CF00000F8011C09980FA9A1EB0807FF1D00B11E
:100D00000120411901EBEA70A1693844081A401E1C
:100D1000A0612078C00602D42046FFF7DBFA0998CC
:100D200028B1D4E901219047206A401C2062207834
:100D3000C00622D52046FFF7CDFA1EE0002E04DBC8
:100D4000B34502DD01A8805D00E03020D4E9012137
:100D50009047206A401C2062761CAAF101005FEADD
:100D6000000A0AD100F09AF8C0680168405CD4E932
:100D700001219047206A401C2062281EA5F1010530
:100D8000DCDC07E0D4E9012118F8010B9047206A68
:100D9000401C2062381EA7F10107F3DC2046FFF754
:100DA000AFFA032011B043E610B5436913B1AFF3B6
:100DB000008001E0FFF7CBFB012010BD127800F1AD
:100DC00024010A7000224A700122EDE711684FF0F9
:100DD000FF32E9E710B5436913B1AFF3008001E0DA
:100DE000FFF772FC012010BD128800F124018284FB
:100DF0000022C2840122EDE711684FF0FF32E9E7DB
:100E000070B516460C46054600F040F8036893F8A6
:100E10000101012806D0FF2C0FD8185D68B1012010
:100E20002C7070BDD3F807013246214603F2071338
:100E300003442846BDE8704018474FF0FF3070BDAE
:100E4000754600F0E3F8AE4605006946534620F0CB
:100E50000700854618B020B5FFF7FAF9BDE8204035
:100E60004FF000064FF000074FF000084FF0000B66
:100E700021F00701AC46ACE8C009ACE8C009ACE819
:100E8000C009ACE8C0098D467047000010B500F0FD
:100E900005F8001D10BD00BFFD350000004870477B
:100EA000C00200202DE9F0411F46044603260168D8
:100EB000072A01F4006004DB08B116A505E016A5B9
:100EC00003E008B115A500E015A521F01000206091
:100ED000A069C01EA0610FB1401EA0612046FFF7AF
:100EE000F9F94FB1D4E9012138469047206A401CF6
:100EF0002062C01C206206E0206AFAE7D4E90121E2
:100F000015F8010B9047761EF8D22046FFF7F8F946
:100F1000BDE8F0814E414E006E616E00494E4600C4
:100F2000696E66002DE9F047814616468AB033485F
:100F300078440DC88DE80D0030487844801C03AC1F
:100F40000DC884E80D0041F69B300844372190FB22
:100F5000F1F290FBF1F5A5F1800501FB12041B3CB9
:100F600002D56442012000E00020DFF890A0804616
:100F70000027FA44AAF1BE0A0DE0E00709D0324684
:100F8000684607EB47010AEB810100F00FFB8DE893
:100F9000070064107F1C002CEFD1184F7F44AC3F3A
:100FA00018E0E80714D007EB04100DF1180A90E8D8
:100FB0000E008AE80E00C068F04201D1981908902E
:100FC000324606A903A800F0F1FA03AB83E8070054
:100FD0006D10641C002DE4D132466946B8F1000F53
:100FE00003A802D000F0CEFA01E000F0DFFAC9E970
:100FF0000001C9F808200AB0BDE8F087304C0000B5
:101000000446AFF300802046FFF70DF90048704713
:10101000A00200204FF0013C50F8042B51F8043B93
:101020009A4221D1A2EB0C03934313EACC1317D1BC
:1010300050F8042B51F8043B9A4215D1A2EB0C0353
:10104000934313EACC130BD150F8042B51F8043B13
:101050009A4209D1A2EB0C03934313EACC13DBD0E1
:101060004FF00000704700BFD01A01BAB1FA81F109
:1010700001F0180122FA01F0CB40C1F12001DBB2EE
:10108000C0B2C01A2CFA01F3D11A914311EAC3116C
:10109000E6D1704701491820ABBEFEE726000200EA
:1010A00070475FEA400C08BF91F0000F4FEA8C23B5
:1010B0004FEAC12243EA51514FEA1C5018BF00F5D4
:1010C000F0404FEA300018BF41F000415FEA6C5C2D
:1010D00000F02980BCF1FF3F08BF40F0804070471E
:1010E000130C06BF12044FF0100C4FF0000C130E3F
:1010F00004BF12020CF1080C130F04BF12010CF113
:10110000040C930F04BF92000CF1020CD30F04BF28
:1011100052000CF1010C11464FF00002A0F11F002B
:10112000A0EB0C00704711F0004F08BF704731F082
:1011300000413FF4D5AF0B0C06BF09044FF0100C73
:101140004FF0000C0B0E04BF09020CF1080C0B0F42
:1011500004BF09010CF1040C8B0F04BF89000CF1D2
:10116000020CCB0F04BF49000CF1010CCCF12003A1
:10117000A0EB0C0022FA03F302FA0CF241EA03019D
:1011800000F10100704720F07F4C80EA030023F05B
:101190007F47ACEB070303F57C5300F0004003F1FD
:1011A000FF032DE980494FEA154B09B44FEA144378
:1011B00025EA0B4E24EA03480FF2042606EB132718
:1011C00049083E785FEA320203FB0667C7F500076D
:1011D00007FB06F64FEA54374FEAD64606F10206F9
:1011E00007FB066CCCF1005C4FEA1C472CEA074C6D
:1011F00007FB06F40CFB06F504EB15464FEA9616C2
:1012000034BF00204FF000404FEAD13706FB07FC07
:101210004FEA1C4C0CFB0BF7D21B03FB0CF761EBEA
:1012200007010CFB0EF7B0EB074072EB17420CFB0B
:1012300008F734BFA2EB0742B2EB074261EB17415C
:101240004FEA0C444FEA910706FB07FC4FEA1C4C9F
:101250000CFB0BF7B0EBC74072EB573203FB0CF7FC
:1012600034BFA2EBC742B2EBC74261EB57310CFB74
:101270000EF7B0EBC70072EB57720CFB08F734BFE8
:10128000A2EBC702B2EBC70261EB5771039F4FEAB3
:10129000816141EA921104EBCC044FEAD1374FEA65
:1012A000826206FB07FC42EA90124FEA80604FEA36
:1012B0001C4C0CFB0BF7D21B03FB0CF761EB07017B
:1012C0000CFB0EF7B0EB074072EB17420CFB08F774
:1012D00034BFA2EB0742B2EB074261EB17414FEA82
:1012E0008C554FEA910704EB9C2406FB07FC4FEA60
:1012F0001C4C0CFB0BF7B0EBC74072EB573203FBF7
:101300000CF734BFA2EBC742B2EBC74261EB5731D7
:101310000CFB0EF7B0EBC70072EB57720CFB08F733
:1013200034BFA2EBC702B2EBC70261EB577115EBFA
:101330004C254FEA816141EA92114FEA82624FEAFD
:10134000D13742EA901206FB07FC44F100044FEA51
:1013500080604FEA1C4C0CFB0BF7D21B03FB0CF715
:1013600061EB07010CFB0EF7B0EB074072EB174285
:101370000CFB08F734BFA2EB0742B2EB074261EB6C
:10138000174115EB1C154FEA813141EA92414FEAB2
:10139000823242EA90424FEA80304FEA0C7644F1C2
:1013A000000448EA03434EEA0B484FF0000EB2EB4C
:1013B000080C71EB030724BF624639464EEB0E0E54
:1013C0004FF0000B0018524149414BEB0B0BB2EBB5
:1013D000080C71EB03077BF1000B24BF6246394612
:1013E0004EEB0E0E4FF0000B0018524149414BEBF3
:1013F0000B0BB2EB080C71EB03077BF1000B24BF66
:10140000624639464EEB0E0E51EA020718BF46F00F
:10141000010616EB0E7655F1000254F1000103D5DA
:10142000BDE88901BDE80088BDE88901BDE8004844
:10143000B619524141EB0101A3F1010370478080CD
:101440007F7E7D7C7B7A797877767675747372711E
:1014500071706F6E6E6D6C6C6B6A6A6968686766D6
:1014600066656464636362616160605F5F5E5E5D68
:101470005D5C5C5B5B5A5A595958585757565655DC
:1014800055555454535352525251515050504F4F3E
:101490004F4E4E4D4D4D4C4C4C4B4B4B4A4A4A498E
:1014A00049494848484747474746464645454544D1
:1014B0004444444343434342424242414141002B5E
:1014C00026D4770021D01CB54FEA370703B44FF07C
:1014D00010004FF010014FF000000FBCBDE81040AD
:1014E0000BF1010BBBF1010F08BF5FEA170722BF29
:1014F00012F1010211F101014FF0004143F100032B
:1015000000F0004043EA00007047F9D35708DAE7DB
:1015100046EA064613F1400F4FEA16461FDD13F167
:10152000200FDFBF16430A46002120335B42C8D09C
:10153000C3F1200746EA064602FA07F74FEA1646C5
:1015400046EA0706C3F1200722FA03F201FA07F779
:1015500021FA03F14FF0000342EA0702B1E746EA3D
:10156000020646EA06464FEA164646EA0106BCBFB0
:1015700046EA0646360C4FF000034FF000024FF0EB
:1015800000019EE72DE9C048934630B491E8380049
:1015900007C831EA400C48BF34EA430C03D5FFF7D3
:1015A000F2FDFFF78CFFF0BCBDE800882DE9C048D4
:1015B000934630B491E8380007C810F0804F08BF58
:1015C00013F0804F03D100F005F8FFF778FFF0BC6F
:1015D000BDE8008820F07F4780EA030023F07F4CBD
:1015E00007EB0C03A3F57C5300F00040A3F1FE03CE
:1015F00092F0000F00F0B38095F0000F00F07780BC
:101600002DE901494FEA11404FEA144621EA00480A
:1016100000FB06FC24EA064708FB06F607FB08F871
:1016200000FB07F718EB06484CEB164C4FEA124B41
:1016300018EB07484FEA15464CEB174022EA0B4ED1
:101640000BFB06FC25EA06470EFB06F607FB0EFE23
:101650000BFB07F71EEB064E4CEB164C4FF000064B
:101660001EEB074E4CEB174B18EB0B0840F100003C
:1016700018EB0E0B58EB000840F100008F1A4FF0EA
:1016800000013CBFC943661B14BFB5EB040C00212D
:101690003CBFC943F61B4FEA17444EEA8E0E27EAB9
:1016A00004454FEA1C4704FB07622CEA074C05FB84
:1016B00007F70CFB05F604FB0CFC16EB074642EBA8
:1016C000174216EB0C4642EB1C421BEB060658EB8E
:1016D0000202414146EA9E0601D5BDE80189B619DC
:1016E000524141EB0101A3F10103BDE801894FEA39
:1016F00014454FEA114724EA054621EA074C05FB49
:1017000007F406FB07F70CFB06F105FB0CFC11EBDD
:10171000074144EB17444FEA124711EB0C4144EBED
:101720001C4422EA074C05FB07F206FB07F70CFBFB
:1017300006F605FB0CFC16EB074642EB174216EBD0
:101740000C4642EB1C456A1854F1000148BF704733
:10175000B619524141EB0101A3F10103704795F025
:10176000000F37D04FEA11424FEA144721EA0246F0
:1017700024EA074C02FB07F106FB07F70CFB06F413
:1017800002FB0CFC14EB074441EB17414FEA1547F1
:1017900014EB0C4441EB1C4125EA074C02FB07F516
:1017A00006FB07F70CFB06F602FB0CFC16EB0746E4
:1017B00045EB174516EB0C4645EB1C42121951F14F
:1017C000000148BF7047B619524141EB0101A3F136
:1017D000010370474FEA14454FEA114724EA0546D2
:1017E00021EA074C05FB07F106FB07F70CFB06F2A5
:1017F0004FF0000605FB0CFC12EB074241EB1741D2
:1018000012EB0C4251EB1C4148BF7047921841EB60
:101810000101A3F10103704721B1826842F0010286
:10182000826003E0826822F001028260704700005B
:1018300010B504461248844208D10121401502F037
:10184000B1F80021601502F0ADF817E00D488442B0
:1018500008D10121001502F0A5F80021201502F0A1
:10186000A1F80BE00848844208D10121C80302F026
:1018700099F800214FF4004002F094F810BD0000E8
:101880000024014000280140003C014001460020A6
:101890008A6802F004020AB1012000E000207047CB
:1018A0000146C86C80B270470246002013680B40A6
:1018B0000BB1012000E000207047014600208A683B
:1018C00002F008020AB1012000E000207047000089
:1018D00030B502460020002350680F4C20400D799F
:1018E0000C6844EA05242043506090680B4C20406B
:1018F000D1E902542C434D7944EA450420439060D9
:10190000D06A20F470000C7C641EE4B2234340EAE9
:101910000350D06230BD0000FFFEF0FFFDF7F1FF85
:10192000F0B504460D4600200021092D11DDE068C8
:10193000A5F10A0606EB4607072606FA07F18843D3
:10194000A5F10A0606EB460603FA06F10843E06035
:101950000CE0206905EB4507072606FA07F18843E6
:1019600005EB450603FA06F108432061072A0FDA62
:10197000606B561E06EB86071F2606FA07F18843A2
:10198000561E06EB860605FA06F10843606322E060
:101990000D2A0FDA206BD61F06EB86071F2606FAE4
:1019A00007F18843D61F06EB860605FA06F10843C1
:1019B000206310E0E06AA2F10D0606EB86071F2601
:1019C00006FA07F18843A2F10D0606EB860605FA32
:1019D00006F10843E062F0BD816841F008018160D2
:1019E000704721B1826842F4A002826003E08268FD
:1019F00022F4A00282607047816841F00401816096
:101A00007047000000B587B001214FF4017001F06C
:101A1000B9FF4FF4004001F089FF0120ADF8040048
:101A200000208DF8070001A9174800F0E7FC1748CF
:101A3000FFF7FEFE002002908DF80C008DF80D00DF
:101A40004FF4602004900020059001208DF81800CC
:101A500002A90E48FFF73CFF01210C48FFF7DCFE0E
:101A60000A48FFF7B9FF00BF0848FFF726FF002824
:101A7000FAD10648FFF7C0FF00BF0448FFF706FF92
:101A80000028FAD107B000BD000801400024014041
:101A900000BFFEE710B5044614B101203A490870B2
:101AA00039480078002849D038480068B8B137482C
:101AB000001D006898B135480830006878B1334897
:101AC0001C30006858B131482030006838B12F48C8
:101AD0001038006818B12D480C38006870BB0A2017
:101AE00000F03AF90020284908702848006808B931
:101AF000012010BD2548001D006808B90220F8E744
:101B000022480830006808B90320F2E71F481C305B
:101B1000006808B90420ECE71C482030006808B9C8
:101B20000520E6E719481038006808B90620E0E704
:101B300016480C38006828BB0720DAE7134800680D
:101B400001281FD11148001D006801281AD10F4833
:101B500008300068012815D10C481C3000680128A5
:101B600010D10A482030006801280BD107481038EE
:101B70000068012806D105480C380068012801D109
:101B8000014908700020B4E7500000201C81214268
:101B900010B5002400F024F804E0601CC4B2012059
:101BA00000F000F90D48006808B1642CF5DB642CE6
:101BB00001DB012010BD002404E0601CC4B2012040
:101BC00000F0F0F80548006808B9642CF5DB642CD7
:101BD00001DB0120EEE70020ECE70000308121422C
:101BE00008B50121082001F0CDFE4FF48050ADF87A
:101BF000000048208DF8030003208DF8020069469C
:101C0000014800F0FBFB08BD000C014008B50121B4
:101C1000082001F0B7FE4FF48050ADF8000010200E
:101C20008DF8030003208DF802006946014800F09A
:101C3000E5FB08BD000C014008B50121082001F0BA
:101C4000A1FE4FF48050ADF8000010208DF8030085
:101C500003208DF802006946064800F0CFFB4FF4E0
:101C60008051044800F060FC00F03CF8FFF790FF62
:101C700008BD0000000C014010B5002404E0601C09
:101C8000C4B2012000F08EF80D48006808B1642C41
:101C9000F5DB002404E0601CC4B2012000F082F8EF
:101CA0000748006808B9642CF5DB282000F07AF8B2
:101CB0000348006808B1012010BD0020FCE70000C7
:101CC0003081214270B50024002506E06006040E34
:101CD000FFF7D2FF0443681CC5B2082DF6DB20468F
:101CE00070BD000010B5FFF791FF002006490860A5
:101CF000142000F031F801200449C1F8B0011E2081
:101D000000F050F810BD0000B08121420080214257
:101D10007047000010B56FF0040001F033FF0A486F
:101D200000680A49B0FBF1F00949087008460078DC
:101D300000EB4001C1EBC0104FF6FF7101EAC0009B
:101D40000449088010BD00003C00002000127A0009
:101D50005E000020600000200146114A12884A43BC
:101D60004FF0E0235A6100229A611A46126942F04C
:101D700001021A6100BF4FF0E022106900F0010279
:101D80001AB100F48032002AF5D04FF0E022126937
:101D900022F001024FF0E0231A6100229A6170479D
:101DA000600000200146114A12784A434FF0E023B8
:101DB0005A6100229A611A46126942F001021A61C0
:101DC00000BF4FF0E022106900F001021AB100F4E8
:101DD0008032002AF5D04FF0E022126922F0010291
:101DE0004FF0E0231A6100229A6170475E000020E4
:101DF0007CB505460E46FFF775FFFFF7C9FE50BBE1
:101E0000002405E0FFF75EFF0DF80400601CC4B27B
:101E1000052CF7DB9DF800009DF8011008449DF8A3
:101E2000021008449DF8031008449DF804108842ED
:101E300011D19DF801009DF8001001EB810100EB2C
:101E4000410030809DF803009DF8021001EB8101F4
:101E500000EB410028807CBD38B5F74800780928A0
:101E600070D2DFE800F005C0E6FDFCFBFAF9F800EF
:101E7000F2A20021012001F0D3FCF148F1A1026897
:101E8000F248FEF711FAF14A0221012001F0C8FCE4
:101E9000EFA20821012001F0C3FCEE48EEA1026888
:101EA000EA48FEF701FAE94A0A21012001F0B8FCEC
:101EB000EBA20021022001F0B3FCEA4800880A21CD
:101EC00090FBF1F201FB1204E648008890FBF1F56B
:101ED00023462A46E4A1DD48FEF7E6F9DB4A022163
:101EE000084601F09DFCE3A20821022001F098FCC5
:101EF000E14800880A2190FBF1F201FB1204DE4860
:101F0000008890FBF1F523462A46DCA1CF48FEF776
:101F1000CBF9CE4A0A21022001F082FCDAA200218C
:101F2000032001F0F3FBDA480068052823D2DFE83C
:101F300000F0030A10161C00D6A20321084601F087
:101F4000E5FB18E048E2D5A20321084601F0DEFBDC
:101F500011E0D4A20321084601F0D8FB0BE0D3A284
:101F60000321084601F0D2FB05E0D2A20321084676
:101F700001F0CCFB00BF00BFD048006830B10128A1
:101F80000AD002280ED0032818D111E0CCA20C21CF
:101F9000032001F045FC11E0CAA20C21032001F04E
:101FA0003FFC0BE0C9A20C21032001F039FC05E045
:101FB000C8A20C21032001F033FC00BF00BFC7A260
:101FC0000021042001F0A2FBC648007828B9C6A26F
:101FD0000321042001F09AFB04E0C5A203210420A0
:101FE00001F094FBF9E1C4A20021012001F08EFB75
:101FF000C54800680521B0FBF1F201FB120050B9A1
:10200000C2480278C2A19148FEF74EF98F4A0621D4
:10201000022001F005FCBC4800680A21B0FBF1F287
:1020200001FB120020B9BBA20621022001F0F8FB3F
:10203000D3E1BAA20021012001F068FBB248006898
:102040000521B0FBF1F201FB120088B9B748027814
:10205000AFA17E4805E097E1C0E091E062E03BE09F
:1020600014E0FEF721F9794A0621022001F0D8FB9D
:10207000A54800680A21B0FBF1F201FB120020B96B
:10208000A4A20621022001F0CBFBA6E1A8A2002118
:10209000012001F03BFB9C4800680521B0FBF1F2F8
:1020A00001FB120050B9A648027899A16748FEF7D3
:1020B000FBF8664A0621022001F0B2FB9248006854
:1020C0000A21B0FBF1F201FB120020B991A2062116
:1020D000022001F0A5FB80E19AA20021012001F07D
:1020E00015FB894800680521B0FBF1F201FB1200E5
:1020F00050B99848027886A15448FEF7D5F8534A5B
:102100000621022001F08CFB7F4800680A21B0FB09
:10211000F1F201FB120020B97EA20621022001F09B
:102120007FFB5AE18CA20121084601F0EFFA7648C4
:1021300000680521B0FBF1F201FB120090B98A485A
:10214000B0F9000000908948B0F900308848B0F933
:10215000002088A13D48FEF7A7F83C4A0421022050
:1021600001F05EFB684800680A21B0FBF1F201FB58
:10217000120020B983A20421022001F051FB2CE1BE
:1021800075A20121084601F0C1FA5F4800680521E7
:10219000B0FBF1F201FB120090B97348B0F90000F6
:1021A00000907248B0F900307148B0F9002071A178
:1021B0002648FEF779F8254A0421022001F030FB79
:1021C000514800680A21B0FBF1F201FB120020B96E
:1021D0006CA20721022001F023FBFEE05EA2012198
:1021E000084601F093FA484800680521B0FBF1F277
:1021F00001FB120090B95C48B0F9000000905B4808
:10220000B0F900305A48B0F900205AA10F48FEF743
:102210004BF80E4A0421022001F002FB3A48006804
:102220000A21B0FBF1F201FB120018B955A20220FD
:1022300001F0F6FAD1E00000010000204C3A000065
:102240000800002025644C78202020008000002019
:102250004A3A00001C0000202564636D2020200005
:10226000543A00000E00002025642E2564432020EF
:1022700020000000483A00001400002025642E25AC
:102280006425252020000000B8DFB6C8A3BA0000EE
:1022900030000020D7EEB5CD00000000B5CDA1A1E3
:1022A00000000000D6D0A1A100000000B8DFA1A16D
:1022B00000000000D7EEB8DF00000000340000206E
:1022C0003063200031306320000000003230632092
:1022D000000000003330632000000000C4A3CABD2A
:1022E000A3BA000002000020D7D4B6AF000000005F
:1022F000CAD6B6AF00000000C9E8D6C3BEE0C0EB46
:10230000D7EEB4F3D6B50000040000202000002072
:10231000256400002020202000000000C9E8D6C36A
:10232000BEE0C0EBD7EED0A1D6B500002100002062
:10233000C9E8D6C3B9E2D5D5D7EEB4F3D6B5000017
:102340000C000020C9E8D6C3B9E2D5D5D7EED0A19C
:10235000D6B500000D000020C9E8D6C3B6A8CAB1A2
:10236000CAB1BCE4000000002C0000202A000020BC
:1023700028000020253032643A253032643A253076
:10238000326400002020000015A20021012001F08D
:10239000BDF9174800680521B0FBF1F201FB1200FE
:1023A00058B914480288AFF298011348FDF77CFF32
:1023B000114A0621022001F033FA0D4800680A2173
:1023C000B0FBF1F201FB120028B9AFF2B80206210E
:1023D000022001F025FA00E000BF00BF38BD000078
:1023E000C9E8D6C3CEC2B6C8D7EEB4F3D6B500009E
:1023F0000400002010000020800000202DE9F041A2
:10240000024600250026002000230024002791F822
:1024100003C00CF00F0591F803C00CF0100CBCF1D8
:10242000000F03D091F802C04CEA050591F800C0F6
:10243000BCF1000F31D0146800202BE04FF0010CEC
:102440000CFA00F3B1F800C00CEA03069E4220D15A
:1024500083004FF00F0C0CFA03F7BC4305FA03FCA2
:102460004CEA040491F803C0BCF1280F06D14FF0E8
:10247000010C0CFA00FCC2F814C00AE091F803C089
:10248000BCF1480F05D14FF0010C0CFA00FCC2F86A
:1024900010C0401C0828D1D31460B1F800C0BCF1B2
:1024A000FF0F34DD546800202EE000F1080C4FF0DF
:1024B000010808FA0CF3B1F800C00CEA03069E42CA
:1024C00021D183004FF00F0C0CFA03F7BC4305FA3F
:1024D00003FC4CEA040491F803C0BCF1280F05D1B9
:1024E00000F1080C08FA0CF8C2F8148091F803C047
:1024F000BCF1480F07D100F1080C4FF0010808FAB1
:102500000CF8C2F81080401C0828CED35460BDE8F7
:10251000F0810246002093680B400BB1012000E0DF
:1025200000207047416170470161704710B5044653
:102530000723012221460948FFF7F2F90121074844
:10254000FFF74FFA00BF02210448FFF7ADF900285A
:10255000F9D00248FFF7A4F910BD000000240140A3
:102560002DE9F04107460C460025002608E03846D4
:10257000FFF7DCFF05440520FFF7EEFB701CC6B239
:10258000A642F4DBB5FBF4F080B2BDE8F0810000B8
:1025900008B501211C2001F0F5F94FF40050ADF809
:1025A000000010208DF8030003208DF8020069461A
:1025B0001148FFF723FF4FF400510F48FFF7B4FF16
:1025C0000220ADF8000069460C48FFF717FF022112
:1025D0000A48FFF7A7FF4FF40050ADF800001020A5
:1025E0008DF8030069460648FFF708FF4FF40051D5
:1025F0000348FFF797FF08BD0010014000080140A5
:10260000000C014000B585B00121082001F0BAF9A5
:102610004FF48060ADF8040004208DF8070001A994
:102620002B48FFF7EBFE4FF480612948FFF77AFF54
:102630000121082001F0A6F94FF40060ADF8040074
:1026400010208DF8070003208DF8060001A920480E
:10265000FFF7D4FE4FF400611D48FFF763FF01212F
:10266000022001F06FF91B4801F084FB40F2E730D3
:10267000ADF80C004720ADF808000020ADF80E00C2
:10268000ADF80A0002A9134801F088FC01211148A5
:1026900001F05EFB012211460E4801F073FC00219F
:1026A0000C4801F05BFB4FF4E06000F041FF1D209F
:1026B0008DF8000000208DF8010003208DF8020045
:1026C00001208DF80300684600F0FAFE05B000BD59
:1026D000000C01400004004000BFFEE72DE9FF5F51
:1026E0008346002500260024A146584602F047F9FB
:1026F0003B4A3C4BCDE9000102F054F94FF0663201
:10270000394BCDE9020101F00DFF074601F0D8FE7B
:1027100082463649504602F02DFB82464CE00120AD
:10272000334908601420FFF73DFB00203149C1F810
:10273000AC0100BF2E48843800680028FAD0002180
:102740002D4801F028FC00202C49088001212A484E
:1027500001F004FB701CC6B200BF25488438006835
:102760000128FAD00021244801F0F8FA0A20FFF7E6
:10277000F3FA214801F0F2FB2049098801EB4102FC
:10278000C2EBC11100EBC10500211B4801F003FCA5
:10279000284602F0D1FB5146039002F0E1FB80464F
:1027A0004FF0804102F0E6FA074602F0A5FB84B242
:1027B00004EB09001FFA80F9032EB0D1484602F05D
:1027C000DEF800220E4BCDE9020101F053FF07466F
:1027D00002F0A8F884B2204604B0BDE8F09F0000E3
:1027E000068195438B6CE33F66B6744000401C46FF
:1027F000AC812142008021420004004052000020B0
:102800000000084008B50121082001F0BBF8802035
:10281000ADF8000048208DF8030069463D48FFF7F9
:10282000EDFD80213B48FFF77FFE0121082001F0EC
:10283000A9F84FF48070ADF8000048208DF803002F
:1028400069463448FFF7DAFD4FF480713148FFF7ED
:102850006BFE0121082001F095F84FF40070ADF8EF
:10286000000048208DF8030069462A48FFF7C6FD9E
:102870004FF400712748FFF757FE0121082001F0AF
:1028800081F84FF48040ADF8000048208DF8030037
:1028900069462048FFF7B2FD4FF480411D48FFF71D
:1028A00043FE0121082001F06DF84FF40040ADF81F
:1028B000000048208DF8030069461648FFF79EFD8A
:1028C0004FF400411348FFF72FFE0121082001F0CB
:1028D00059F80820ADF8000048208DF8030069463B
:1028E0000C48FFF78BFD08210A48FFF71DFE012168
:1028F000082001F047F81020ADF8000048208DF8BE
:10290000030069460348FFF779FD10210148FFF7EE
:102910000BFE08BD000C014010B50120FFF7BAF80E
:10292000B749087008460078002870D0084600783B
:1029300008286DD2DFE800F06C0425A5F3F2F1F071
:10294000B0480078401CAF49087008460078092854
:1029500001DB0020087000F0F5FDAB48B0F9000085
:102960004FF461614843A949B1F90010C1EB01116D
:1029700000EB8100A649B1F900100844A5490860A0
:102980003BE1A0480078092878D2DFE800F0051282
:102990001C293342505E6C000A209F49086008469B
:1029A00000680A2801D90020086001209B490870AE
:1029B00065E09B480078642804DA99480078401C58
:1029C000974908705BE096480078401E9549097861
:1029D000884204DD93480078401C924908704EE01C
:1029E00091480078632804DA8F480078401C8E49AB
:1029F000087044E08C480078401E8C490978884271
:102A000004DD8A480078401C8849087037E0F5E00A
:102A1000F2E07D480088401C00B27B4908800846EF
:102A2000B0F90000182801DB0020088027E0774873
:102A30000088401C00B2754908800846B0F90000C3
:102A40003C2801DB0020088019E071480088401C08
:102A500000B26F4908800846B0F900003C2801DB4D
:102A6000002008800BE072480088632804DA704870
:102A70000088401C6E49088001E0FFE700BF00BFEE
:102A8000BBE060480078092871D2DFE800F0050952
:102A900016202D374957650000206049087067E00F
:102AA0005F4801785F480078401C814204DD5C4843
:102AB0000078401E5A4908705AE05A4800780028A9
:102AC00004DD58480078401E5649087050E05648CA
:102AD000017856480078401C814204DD5248007855
:102AE000401E5149087043E050480078002804DD3A
:102AF0004E480078401E4D49087039E04248008831
:102B0000401E00B2404908800846B0F90000002885
:102B100001DA172008802BE05EE04CE03BE029E082
:102B20003A480088401E00B2384908800846B0F98B
:102B30000000002801DA3B20088019E034480088B2
:102B4000401E00B2324908800846B0F90000002853
:102B500001DA3B2008800BE035480088002804DDBE
:102B600033480088401E3249088001E0FFE700BF7B
:102B700000BF42E02F48006804280BD22D480068AF
:102B8000401C2C49086001202B490870234908701B
:102B900000F0D8FC31E02748006858B125480068AB
:102BA000401E244908600120244908701B49087010
:102BB00000F0C8FC21E02248006804280BD220481D
:102BC0000068401C1E49086001201E490870134916
:102BD000087000F0B7FC10E01948006858B11848B8
:102BE0000068401E164908600120174908700B490B
:102BF000087000F0A7FC00E000BF00BF10BD00009F
:102C00000000002001000020280000202A000020F1
:102C10002C0000202400002054000020020000208E
:102C200020000020210000200C0000200D000020CA
:102C30001000002030000020380000203900002063
:102C4000340000203A0000203B00002010B55F480F
:102C5000007800287ED15E4800685E490978884285
:102C600042D25D48006810B101205C4908705C48A0
:102C7000007830BB5B4800685B490978884203D91B
:102C800000205A4908601CE05648006858490978F5
:102C9000884203D20A205549086012E05148006872
:102CA00053490978401A00EB800040004E490978EA
:102CB0004F4A1278891AB0FBF1F0C0F10A004B4973
:102CC0000860434800684B490978884208D24FF4AD
:102CD0004870FFF767F848A14B4801F037FB09E05F
:102CE00000204A49087005E03D48007810B90020EE
:102CF0003E49086046480078012826D10020444912
:102D000008704448B0F900004FF4616148434249FB
:102D1000B1F90010C1EB011100EB81003F49B1F99D
:102D2000001008442C4908603DA1374801F00EFB13
:102D300007E03E480068401E3C490860402000F023
:102D40009DFA3A4800680028F3D13948008800EB22
:102D5000800000E02EE037490988B1EB400F03DD29
:102D600001203549086002E00020334908601C4812
:102D70000078012829D131480078012806D1402067
:102D800000F05EF900202D49087009E02C48007819
:102D9000012805D1402000F071FA00202849087070
:102DA00028480078012806D1402000F0D5F90020FD
:102DB0002449087009E024480078012805D1402002
:102DC00000F0E8FA00202049087010BD0100002042
:102DD0001C000020200000202400002058000020BB
:102DE00002000020080000200C00002054000020F9
:102DF0000D00002021000020E0D6C7EBD7A2D2E2D0
:102E0000D7F8D7CB00000000004400402F0000207E
:102E10002E000020280000202A0000202C00002086
:102E2000C7EBD7A2D2E2D0DDCFA200003000002055
:102E3000100000200E0000208401214238000020F4
:102E4000390000203A0000203B00002000BFFEE7D0
:102E50002DE9F84F1848007860BB18480068052134
:102E6000B0FBF1F201FB120020BB01210020FFF7B3
:102E700077FB009001F083FD80460022104B01F0AB
:102E8000F9FB06464FF066320E4B01F08BFD04460F
:102E900000220D4B01F086FD824601F043FD0B49F7
:102EA00008601C20FFF71AFC0949086009490A4814
:102EB000FEF79EFFBDE8F88F01000020040000200F
:102EC0000000B04066660A4000003E400800002056
:102ED0001C000020140000200E00002008B5012175
:102EE000042000F04FFD1020ADF800008DF8030025
:102EF00003208DF8020069464F48FFF77FFA102142
:102F00004D48FFF70FFB0121042000F03BFD20207E
:102F1000ADF8000010208DF8030003208DF80200AA
:102F200069464548FFF76AFA20214348FFF7FAFA55
:102F30000121042000F026FD4020ADF80000102003
:102F40008DF8030003208DF8020069463A48FFF728
:102F500055FA40213848FFF7E5FA0121042000F036
:102F600011FD8020ADF8000010208DF80300032033
:102F70008DF8020069463048FFF740FA80212E485C
:102F8000FFF7D0FA0121082000F0FCFC4FF40060AC
:102F9000ADF8000010208DF8030003208DF802002A
:102FA00069462648FFF72AFA4FF400612348FFF7E5
:102FB000B9FA0121082000F0E5FC4FF48060ADF87B
:102FC000000010208DF8030003208DF802006946F0
:102FD0001A48FFF713FA4FF480611848FFF7A2FA76
:102FE0000121082000F0CEFC0220ADF800001020E6
:102FF0008DF8030003208DF8020069460F48FFF7A3
:10300000FDF902210D48FFF78DFA0121082000F09B
:10301000B9FC0120ADF8000010208DF8030003205A
:103020008DF8020069460548FFF7E8F901210348D9
:10303000FFF778FA08BD000000080140000C0140CD
:1030400070B5044600257EE001204149086000205B
:103050004049C1F894013E490831086001203D49CA
:10306000C1F89C014FF44870FEF79CFE00203849DF
:103070000860091D0860091D086001203549C1F874
:103080009C014FF44870FEF78DFE00203049086027
:10309000091D08600120091D08602E49C1F89C0126
:1030A0004FF44870FEF77EFE002029490860091D94
:1030B00008600120091D086000202649C1F89C0114
:1030C0004FF44870FEF76EFE002021490860012091
:1030D000091D0860091D086000201E49C1F89C01F7
:1030E0004FF44870FEF75EFE002019490860012089
:1030F000091D08600020091D08601649C1F89C01DF
:103100004FF44870FEF74EFE012011490860091D7A
:1031100008600020091D08600E49C1F89C014FF4A9
:103120004870FEF73FFE0120094908600020091D94
:103130000860091D08600749C1F89C014FF44870F8
:10314000FEF730FE6D1CA542FFF47EAF70BD00009F
:10315000900121420000214270B50446002585E01F
:1031600001204449086000204349C1F8A8014149B1
:103170002839086001204049C1F880014FF44870A7
:10318000FEF710FE00203B490860091F086039491E
:103190002839086001203849C1F880014FF448708F
:1031A000FEF700FE002033490860091F0860012077
:1031B0003049283908603049C1F880014FF448701F
:1031C000FEF7F0FD00202B490860091F0860012070
:1031D00028492839086000202749C1F880014FF4A8
:1031E0004870FEF7DFFD0020224908600120091F1A
:1031F000086020492839086000201F49C1F8800173
:103200004FF44870FEF7CEFD00201A4908600120F7
:10321000091F086000201749283908601649C1F8BD
:1032200080014FF44870FEF7BDFD01201149086090
:10323000091F086000200F49283908600E49C1F8AD
:1032400080014FF44870FEF7ADFD01200949086088
:103250000020091F08600749283908600649C1F89D
:1032600080014FF44870FEF79DFD6D1CA542FFF4F0
:1032700077AF70BDAC8121420080214270B5044619
:1032800000257EE001204149086000204049C1F846
:1032900094013E49083108603D49C1F89C014FF452
:1032A0004870FEF77FFD012038490860091D08605D
:1032B0000020091D08603649C1F89C014FF4487090
:1032C000FEF770FD0020314908600120091D0860EB
:1032D0000020091D08602E49C1F89C014FF4487078
:1032E000FEF760FD0020294908600120091D0860E3
:1032F000091D086000202649C1F89C014FF4487060
:10330000FEF750FD002021490860091D08600120DA
:10331000091D086000201E49C1F89C014FF4487047
:10332000FEF740FD002019490860091D08600120D2
:10333000091D08601649C1F89C014FF44870FEF75A
:1033400031FD002011490860091D0860091D086051
:1033500001200F49C1F89C014FF44870FEF722FD8F
:1033600001200A4908600020091D0860091D086045
:1033700001200749C1F89C014FF44870FEF712FD87
:103380006D1CA542FFF47EAF70BD0000900121428C
:103390000000214270B50446002585E00120444923
:1033A000086000204349C1F8A80141492839086054
:1033B0004049C1F880014FF44870FEF7F3FC01204A
:1033C0003B490860091F0860002039492839086016
:1033D0003849C1F880014FF44870FEF7E3FC002043
:1033E000334908600120091F08600020304928394E
:1033F00008603049C1F880014FF44870FEF7D2FCF4
:1034000000202B49086001202B49086028492839F1
:10341000086000202749C1F880014FF44870FEF78A
:10342000C1FC002022490860091F086001202049D2
:103430002839086000201F49C1F880014FF4487006
:10344000FEF7B0FC00201A490860091F086001203F
:103450001749283908601749C1F880014FF44870AE
:10346000FEF7A0FC002012490860091F08601049FF
:103470002839086001200F49C1F880014FF44870D5
:10348000FEF790FC01200A4908600020091F08602F
:1034900007492839086001200649C1F880014FF426
:1034A0004870FEF77FFC6D1CA542FFF477AF70BD3E
:1034B000AC812142008021429401214270470000EA
:1034C00070B5002100230F22C47804B3154C246882
:1034D00004F4E064C4F5E064210AC1F10403CA40C5
:1034E000447804FA03F184781440214309010E4C16
:1034F0000678A155047804F01F050124AC40057836
:103500006D11AD0005F1E025C5F8004109E0047832
:1035100004F01F050124AC40044D0678761145F8EF
:10352000264070BD0CED00E000E400E080E100E02A
:1035300002490143024A1160704700000000FA0589
:103540000CED00E070B5002415E004F1B001C8B244
:1035500000F0CAF9012000F0C7F9102000F0C4F90A
:10356000002504E0002000F0CFF9681CC5B2802DD2
:10357000F8DB601CC4B2082CE7DB70BD00BF0100A3
:10358000A0F10100FBD1704700B501200B49086094
:103590001420FFF7F3FF01200949C1F89801142016
:1035A000FFF7ECFF00200549091D08601420FFF714
:1035B000E5FF00200249C1F8940100BD9481214239
:1035C0000080214200B50020074908601420FFF761
:1035D000D5FF01200549C1F894011420FFF7CEFF63
:1035E00001200149086000BD9881214200802142EC
:1035F00008B50121082000F0C5F90121082000F0DC
:10360000C1F92020ADF8000010208DF80300032040
:103610008DF8020069463248FEF7F0FE4020ADF812
:10362000000010208DF8030003208DF80200694689
:103630002B48FEF7E3FEAE2000F056F9202000F004
:1036400053F9102000F050F9B02000F04DF9C820D7
:1036500000F04AF9022000F047F9102000F044F988
:10366000402000F041F9812000F03EF97F2000F079
:103670003BF9A12000F038F9A62000F035F9A82088
:1036800000F032F93F2000F02FF9A42000F02CF9CF
:10369000D32000F029F9002000F026F9D52000F011
:1036A00023F9F02000F020F9D92000F01DF92220A4
:1036B00000F01AF9DA2000F017F9122000F014F9DE
:1036C000DB2000F011F9202000F00EF98D2000F031
:1036D0000BF9142000F008F9AF2000F005F908BD3F
:1036E000000C014070B505460C4605F1B001C8B2AA
:1036F00000F0FAF8102141EA141000F0F5F804F097
:103700000F0141F0010000F0EFF870BD2DE9F0412C
:10371000074688461646781E4006070E4FEA087090
:103720004FEA106846E000253CE005EB051024490F
:1037300011F810003178884232D105EB051020498C
:1037400001EB400040787178884229D141463846E3
:10375000FFF7C8FF00240AE005EB0511184A02EB49
:103760004101891C085D00F0CFF8601CC4B2102C28
:10377000F2DB791CC8B24146FFF7B4FF00240CE02D
:1037800005EB05110E4A02EB4101891C04F1100200
:10379000885C00F0B9F8601CC4B2102CF0DB03E0C8
:1037A000681CC5B2322DC0DB00BFB61C08F110008A
:1037B00000F0FF0830780028B5D1BDE8F0810000A6
:1037C000EC5600082DE9F0410646884617460025CC
:1037D0000024A7F1200541463046FFF783FF00BFD4
:1037E00006E004EB05110D4A505C00F08DF8641CF6
:1037F000082CF6D3711CC8B24146FFF773FF0024B2
:1038000007E004EB05110831044A505C00F07CF835
:10381000641C082CF5D3BDE8F0810000FC500008C2
:103820002DE9F04105460C4616460027681E400665
:10383000050EE006040E0DE0F25D21462846FFF776
:10384000C1FF04F10800C4B2782C02DD0024A81CDA
:10385000C5B27F1CF05D0028EED1BDE8F08100000C
:1038600070B5044600251EE004F0800018B1012068
:103870001A49086002E00020184908601420FFF788
:103880007DFE01201549091F08601420FFF776FE10
:1038900000201349C1F894011420FFF76FFE600661
:1038A000040E681CC5B2082DDEDB01200B49086040
:1038B0001420FFF763FE01200949C1F89401142088
:1038C000FFF75CFE20210748FEF723FE0646002096
:1038D0000249091F0860304670BD000098812142EE
:1038E00000802142000C014010B50446FFF74CFE59
:1038F0007820FFF7B5FF0020FFF7B2FF2046FFF763
:10390000AFFFFFF75FFE10BD10B50446FFF73CFEAA
:103910007820FFF7A5FF4020FFF7A2FF2046FFF722
:103920009FFFFFF74FFE10BD7047000001460020CB
:10393000034A506820F4404008435060704700003C
:103940000010024029B1064AD2690243044BDA61F1
:1039500004E0034AD2698243014BDA6170470000F8
:103960000010024029B1064A12690243044B1A6151
:1039700004E0034A12698243014B1A617047000058
:103980000010024029B1064A92690243044B9A6131
:1039900004E0034A92698243014B9A617047000038
:1039A0000010024029B1064AD2680243044BDA6093
:1039B00004E0034AD2688243014BDA60704700009A
:1039C0000010024030B500210022002400232D4DBC
:1039D0006D6805F00C0121B1042905D0082923D117
:1039E00005E0294D056022E0274D05601FE0254DCB
:1039F0006D6805F47012234D6D6805F4803402255E
:103A000005EB92421CB9214D554305600BE01D4D5D
:103A10006D6805F400351DB11C4D5543056002E08D
:103A2000194D5543056002E0174D056000BF00BF0A
:103A3000144D6D6805F0F0010909154D6B5C0568C2
:103A4000DD4045600F4D6D6805F4E061090A104DD9
:103A50006B5C4568DD4085600A4D6D6805F460511A
:103A6000C90A0B4D6B5C4568DD40C560054D6D684E
:103A700005F44041890B074D6B5CC568B5FBF3F558
:103A8000056130BD0010024000127A0000093D00BF
:103A90006A0000207A000020704710B500F002F89C
:103AA00010BD00000CB50020019000903348006864
:103AB00040F480303149086000BF3048006800F4AD
:103AC000003000900198401C0190009818B90198AE
:103AD000B0F5A06FF1D12948006800F4003010B1B2
:103AE0000120009001E0002000900098012843D1BF
:103AF0002348006840F0100021490860084600682B
:103B000020F0030008600846006840F002000860EA
:103B10001A484068194948600846406848600846A5
:103B2000406840F4806048600846406820F47C109B
:103B300048600846406840F4E8104860084600685D
:103B400040F08070086000BF0C48006800F0007012
:103B50000028F9D00948406820F003000749486070
:103B60000846406840F00200486000BF03484068D3
:103B700000F00C000828F9D10CBD00000010024034
:103B800000200240042808D14FF0E021096941F0EB
:103B900004014FF0E022116107E04FF0E0210969D4
:103BA00021F004014FF0E0221161704770470000DE
:103BB00010B51348006840F001001149086008463C
:103BC0004068104908400E494860084600680E49A0
:103BD00008400B4908600846006820F4802008600F
:103BE0000846406820F4FE0048604FF41F008860DB
:103BF000FFF753FF4FF000600449086010BD00005C
:103C0000001002400000FFF8FFFFF6FE08ED00E0A4
:103C100010B50121880700F0A4F9002844D0012143
:103C2000880700F098F821480088401C1F49088048
:103C3000084600880A2801DB002008801B4800880D
:103C40001B490968884203D201201A49086002E032
:103C50000020184908601848007801281FD117482B
:103C60000088401C1549088008460088B0F57A7F16
:103C70001ADB1348006828B111480068401E10493B
:103C8000086005E001200F49087000200A4908700B
:103C900000200A49088001200B49087004E0002038
:103CA000064908800849087010BD00005A0000202D
:103CB00054000020B4812142580000205C00002004
:103CC000240000202E000020590000207FB505466A
:103CD0000C4601210846FFF735FEADF80850ADF857
:103CE00004400020ADF80A00ADF8060001A94FF02D
:103CF000804000F053F901221146900700F042F98C
:103D00001C208DF8000000208DF8010003208DF8A4
:103D1000020001208DF803006846FFF7D1FB012166
:103D2000880700F01BF87FBD10B50121064800F0A0
:103D300018F940B105480088401C04490880012159
:103D4000014800F008F810BD0004004052000020B7
:103D5000CA4302827047CA430282704721B1028877
:103D600042F00102028004E002884FF6FE731A401E
:103D70000280704710B504466848844208D101218A
:103D8000C014FFF70FFE0021E014FFF70BFEC4E0A4
:103D9000B4F1804F08D101210846FFF7E3FD00216F
:103DA0000120FFF7DFFDB8E05D48844208D1012122
:103DB0000220FFF7D7FD00210220FFF7D3FDACE082
:103DC0005848844208D101210420FFF7CBFD00218F
:103DD0000420FFF7C7FDA0E05348844208D1012129
:103DE0000820FFF7BFFD00210820FFF7BBFD94E08E
:103DF0004E48844208D101211020FFF7B3FD002175
:103E00001020FFF7AFFD88E04948844208D1012126
:103E10002020FFF7A7FD00212020FFF7A3FD7CE075
:103E20004448844208D101214014FFF7BBFD002122
:103E30006014FFF7B7FD70E03F48844209D10121CB
:103E4000C804FFF7AFFD00214FF40020FFF7AAFDE3
:103E500063E03A48844209D101210805FFF7A2FD39
:103E600000214FF48010FFF79DFD56E03448844256
:103E700009D101214805FFF795FD00214FF40010FD
:103E8000FFF790FD49E02F48844208D101214020EE
:103E9000FFF768FD00214020FFF764FD3DE02A4860
:103EA000844208D101218020FFF75CFD00218020A1
:103EB000FFF758FD31E02548844208D101218015E3
:103EC000FFF750FD0021A015FFF74CFD25E020482D
:103ED000844209D101210804FFF764FD00214FF459
:103EE0008030FFF75FFD18E01A48844209D10121B4
:103EF0004804FFF757FD00214FF40030FFF752FD53
:103F00000BE01548844208D101218804FFF74AFDDF
:103F100000214FF48020FFF745FD10BD002C01402B
:103F20000004004000080040000C00400010004069
:103F30000014004000340140004C0140005001409A
:103F40000054014000180040001C004000200040C8
:103F50000040014000440140004801400146888C77
:103F6000704730B50246002000230024158A05EA78
:103F70000103958905EA010413B10CB1012000E0A9
:103F8000002030BD1AB183890B43838102E083890D
:103F90008B43838170478184704700000022028830
:103FA0001D4B98420ED01D4B98420BD0B0F1804F64
:103FB00008D01B4B984205D01A4B984202D01A4B9E
:103FC000984204D14FF68F731A404B881A43174B0F
:103FD000984207D0164B984204D04FF6FF431A4040
:103FE000CB881A4302808B8883850B8803850A4B14
:103FF00098420BD0094B984208D00E4B984205D0FE
:104000000D4B984202D00D4B984201D10B7A03869A
:104010000123838270470000002C014000340140DE
:104020000004004000080040000C00400010004068
:10403000001400400040014000440140004801409D
:1040400010B540F225510E4800F068F8B0B10D48A7
:104050000088FF2802D900200A4908800848001D6E
:104060000088C1B2074802880088401C054B1880B0
:10407000054881542021024800F02EF810BD0000B0
:104080000038014062000020A000002010B540F27E
:1040900025510E4800F042F8B0B10D480088FF28C5
:1040A00002D900200A4908800848001D0088C1B2D2
:1040B000074802880088401C054B18800548815439
:1040C0002021024800F008F810BD00000044004024
:1040D00066000020A001002001F40072B2F5007F0C
:1040E00000D100BFCA430280704721B1828942F4E7
:1040F0000052828104E082894DF6FF731A4082816A
:10410000704702460020B1F5007F00D100BF138840
:104110000B400BB1012000E00020704770B5024653
:10412000002400230025002040F66A16B14200D189
:1041300000BFC1F3421501F01F03012606FA03F385
:10414000012D02D19689334006E0022D02D1168A54
:10415000334001E0968A33400C12012606FA04F43B
:104160001688344013B10CB1012000E0002070BD6E
:10417000F0B50346002400260025002040F66A170B
:10418000B94200D100BF1846C1F3421401F01F0626
:10419000012707FA06F5012C01D10C3004E0022CAE
:1041A00001D1103000E014301AB107682F430760C6
:1041B00002E00768AF430760F0BD00002DE9F0475B
:1041C00086B005460E460024A24600BFA146002741
:1041D000B08900B100BF2F462C8A4CF6FF70044016
:1041E000F08804432C82AC894EF6F3100440B0886A
:1041F00031890843718908430443AC81AC8A4FF686
:10420000FF400440B0890443AC8201A8FFF7DAFB09
:104210001F48874202D1DDF810A001E0DDF80CA0B4
:10422000A88900F4004040B10AEBCA0000EB0A1074
:1042300031684900B0FBF1F807E00AEBCA0000EB77
:104240000A1031688900B0FBF1F86420B8FBF0F087
:1042500004012009642101FB1089A88900F40040B1
:1042600040B1322000EBC900B0FBF1F000F00700D4
:10427000044308E0322000EB09106421B0FBF1F0A8
:1042800000F00F0004432C8106B0BDE8F087000069
:1042900000380140C1F308028280704700BFFEE78A
:1042A00010B586B0044601210420FFF76BFB012105
:1042B0004804FFF747FB18208DF817000420ADF8DD
:1042C000140003208DF8160005A91E48FEF796F885
:1042D00004208DF817000820ADF8140003208DF895
:1042E000160005A91748FEF789F826208DF800006A
:1042F00001208DF8030000208DF8010002208DF8C8
:1043000002006846FFF7DCF801940020ADF81000C9
:104310000C20ADF80E000020ADF80C00ADF80A003E
:10432000ADF8080001A90848FFF748FF012240F254
:1043300025510548FFF71CFF01210348FFF7D5FE73
:1043400006B010BD00080140004400400FB430B575
:10435000CBB0054601AC50A800904FF4947101A871
:10436000009B4F9AFBF786FF002000900BE014F8AB
:10437000011B2846FFF78EFF00BF40212846FFF7AC
:10438000C0FE0028F9D020780028F0D14BB030BC16
:104390005DF814FB490050EAC12018BF04204A0D03
:1043A00018BF40F0010040F2FF72B2EB515F08BF4E
:1043B00040F00200012808BF0520704730380A2865
:1043C00001D2012070470020704700004FF4A06028
:1043D000FFF7AEF8FDF79EFCFEF7DAF8FEF712FAEB
:1043E000FFF706F9FFF7AEF84FF41650FFF758FF46
:1043F00041F61F410920FFF769FCFEF76FFDFDF74D
:104400001BFCFDF7FFFAFEF7FDF826E0FEF784FA45
:10441000FEF71EFDFDF720FDFEF718FC0F480068B3
:10442000401C0E4908600A20FDF796FC0B48006806
:104430000A21B0FBF1F201FB120028B9084800681C
:10444000C0430849C1F8B4010448006841F288310A
:10445000884202D3002001490860D7E70400002009
:10446000B40122420000224210B500290AD0087887
:10447000002807D005487844FCF7CCFD002801D07F
:10448000002010BD0248784410BD0000261700002F
:104490001E17000010B500290AD00878002807D0A0
:1044A00005487844FCF7B6FD002801D0002010BD77
:1044B0000248784410BD0000161700000E170000D7
:1044C00021F00042A2F16052B2F5801F01F00043DA
:1044D00028BFD2F17F6C0BD95FEA001C43EAC2020D
:1044E00042EB507018BF704728BF20F001007047A2
:1044F000B2F5801FBCBF184670474FEA410C1CF54F
:10450000001F02D2084600F0F2BD70B500F0F4FAC8
:1045100000000089FFF7F6BF4FF00040A0F58000D3
:104520007047000010B591EA030F48BF83F00043C5
:1045300000F13E83841A71EB030C05D2121943EB90
:104540000C03001B61EB0C01DFF824E14FEA11546E
:10455000A4EB135C1EEA430F18BF9EEA445F73D0BE
:1045600023EA0E03DCF1200E21EA045143F4801308
:1045700032D322FA0CFE10EB0E0023FA0CFE41EBB4
:104580000E01CCF1200E03FA0EFE10EB0E0051F1DD
:104590000001B1F5801FCCF1200E32D201EB0451A5
:1045A00012FA0EF2BDE8104058BF7047401C38BFE9
:1045B0005FEA420218BF7047002814BF20F00100D4
:1045C00041F100014FEA410313F5001F38BF704766
:1045D000A1F1C04100F0DEBA012A43EB0302ACF1C5
:1045E000200CDCF11F0E32BF4FF0000E23FA0CF34B
:1045F00010EB030041EB0451B4EB115FD0D0A1EB01
:10460000045101F5801149085FEA300001EB0451C3
:104610000ED350F1000038BF12FA0EFE08D1BDE8EB
:104620001040C9E7401C38BF5FEA4202CAD1C3E765
:10463000BDE810404FEA410313F5001F38BF704733
:10464000A1F1C04100F0A6BA9EEA445F08D011EA89
:104650005E0FBDE8104004BF01F00041002070472C
:10466000BDE8104070B500F047FA00BF64FBBE3EE5
:104670000000E0FF2DE9C04130B4DFF8A0C23CEA01
:10468000111418BF3CEA131400F0EC8081EA030512
:104690001CEA111444EAD57418BF1CEA131500F083
:1046A000C780A4EB05044FF0004545EAC12145EA67
:1046B000C32341EA505143EA525304F17F749942B3
:1046C00004F500344FEAC0204FEAC22208BF9042EE
:1046D00000F09C804FEA13650FF24016765D4FEABA
:1046E000134506FB05F7C7F1807706FB07F74FEA8E
:1046F000D737A7FB03687642C8F58038A7FB06CEFC
:1047000038BFA8F1010807FB08E64FF0000EA6FB32
:10471000028CE6FB03CEDCF1000CCEF1004E38BF7C
:10472000AEF1010EA6FB0C584FF000074FF000054C
:10473000E6FB0E87A1FB08C6A0FB07CE16EB0E0614
:1047400045F10005E1FB076515F1E04E7EBFA4F5DC
:1047500080345FEA46066D4116F1800745F1000599
:104760004FEA17274FEA066647EA0567A6F1DE46D5
:10477000B6F1805F4FEA15251FD9384624F0010CA9
:1047800005EBC471BCF1FE6F01EB0C1102D8F0BC5B
:10479000BDE8008124425CBF01F5801E9EEAC47F13
:1047A00002D4F0BCBDE80081244238D4F0BCA1F1B1
:1047B000C041BDE8004100F0EDB94FEAD22242EA23
:1047C00043524FEAD323A7FB02864FEAD02040EAA8
:1047D000415007FB03661EEA0E0F4FEAD12105FB8D
:1047E000026658BFA6EB0056B6EB00564FEA520ED3
:1047F0004EEAC37E18EB0E0E56EB530EBDD518EBEA
:1048000002085E417F1C55F10005B6E74FF48015A4
:104810004FF000074FF000064FF00008ADE7F0BC86
:104820004FF0000001F1C04101F00041BDE80081FE
:1048300011EA0C1F0CEA131500D00CE013EA0C1F50
:1048400000F025804FF00000F0BC81EA030101F088
:104850000041BDE80081F0BCBDE8004181EA0301F0
:1048600000F098B9F0BCBDE8004170B500F044F923
:10487000097EFC3E00F007B881EA03014FF000001A
:1048800001F00041704781EA030100F083B9F0BCF8
:10489000BDE800414FF0000021497047FFFDFBF9E2
:1048A000F7F5F4F2F0EEEDEBE9E8E6E4E3E1E0DE63
:1048B000DDDBDAD8D7D5D4D3D1D0CFCDCCCBCAC8D5
:1048C000C7C6C5C4C2C1C0BFBEBDBCBBBAB9B8B7FC
:1048D000B6B5B4B3B2B1B0AFAEADACABAAA9A8A8EF
:1048E000A7A6A5A4A3A3A2A1A09F9F9E9D9C9C9BBD
:1048F0009A99999897979695959493939291919068
:104900008F8F8E8E8D8C8C8B8B8A898988888787F8
:104910008685858484838382828181800000FF076D
:104920000000F87F4FEA1153A3F58063D3F11E0313
:10493000A8BFD3F1200C08DB4FF0004242EAC122AD
:1049400052EA505232FA03F0704709420BD4102B4E
:10495000C4BF0020704703F5787CBCF1FF3F05D051
:104960004FF0FF3070474FF00000704770B500F017
:10497000C3F800BF4992248000207047F0E7B0FAE6
:1049800080F310FA03F10AD0C3F11D0303F580632D
:104990004FEA41504FEA035202EBD12170474FF0EA
:1049A00000007047DFF848C170B51CEA111E1EBF39
:1049B0001CEA13159EEA0C0F95EA0C0F00F06F80AD
:1049C00081EA030423EA4C134EEAD47E21EA4C1117
:1049D00041F4801143F48013AE44A1FB024CA0FBD0
:1049E0000365AEF17F7E361955EB0C05A1FB034C38
:1049F0004CF10003A0FB021C16EB0C06654153F1C1
:104A00000003094218BF46F0010613F4007F0BD1E2
:104A10004FEA03314FEA0530340341EA155140EAC9
:104A200016506FF003020AE04FEAC3214FEAC52097
:104A3000F40241EA555140EA56506FF0020202EB8F
:104A40002E4201EB025585EACE710AD05FEA440C92
:104A500018BF24F0004450F1000041F1000120EAA9
:104A6000D47040F2FE7C624500D270BDA84214BFF3
:104A70004FF080444FF04044002E08BF0024BEF1A8
:104A8000806FA8BFA1F1C041BDE8704080F2828074
:104A90004FF0000001F1C04101F0004170479EEA73
:104AA0000C0F0CEA131518BF95EA0C0F06D04FF047
:104AB000000081EA030E0EF0004170BD00F01CF80A
:104AC0008900013E00F007B800F009B84FEA430C36
:104AD0005FEA5C5C08D081EA030100F05BB84FEA52
:104AE000410C5FEA5C5CF6D14FF000000149704771
:104AF0000000FF070000F87F0EF1020E2EF0030EFB
:104B00005EF8046B364205D4012A43EB030515F524
:104B1000001F12D8012841EB010C1CF5001F0CD816
:104B20000ED14FEAD17C15F5001F0CEB4C0C0CF1AB
:104B3000020C08BF4CEBD37C04E04FF0080C01E002
:104B40004FEAD37C0CEB4C0526FA05F606F0070677
:104B5000B6F1040C06D20EEB860CBDE870404CF0AA
:104B6000010C6047DFE80CF0090B02024FF0004136
:104B70004FF00000A1F5002170BD19461046012834
:104B800051EB010418BFD4F5001484BF002001F0DC
:104B9000004170BD0808A0F500114FEA31017047CF
:104BA00010B591EA030F48BF83F000433FF5C2AC54
:104BB000841A71EB030C07D212198CF0004C43EBF2
:104BC0000C03001B61EB0C01DFF8A4E14FEA115468
:104BD000A4EB135C1EEA430F18BF9EEA445F00F08B
:104BE000B08023EA6E03524221EA0451C3EB6E0304
:104BF00038BF5B1EDCF1200E25D322FA0CFE10EB31
:104C00000E0043FA0CFE41EB0E01CCF1200E03FA2C
:104C10000EFE10EB0E0051F10001CCF1200E29D454
:104C200012FA0EF201EB0451BDE8104058BF704774
:104C3000401C1CBFB2F1004F704700280CBF491C3C
:104C400020F00100704712EB020E43EB030218BF85
:104C50004FF0010E4EEA4202ACF1200CDCF11E0EC8
:104C600054D943FA0CFE10EB0E0051F1FF31CCF198
:104C70001E0ED5D50EF1010E12FA0EFE404141EB8B
:104C8000010101EB445C5FEA5C5C10D910EBDE7063
:104C900001EB045138BFBEF1004FBDE8104018BF12
:104CA000704700280CBF491C20F00100704730D22B
:104CB0004FEAD42C11F5001124F400641BD0B1FA92
:104CC00081F20B3AA41AA41ED2F12003914030FACB
:104CD00003F31943904001EBCC71002C01EB04511C
:104CE000BDE81040A8BF704701F1C0414FF000007F
:104CF00001F000417047B0FA80F310FA03F100D1DF
:104D000010BDE41A173C4805C90AE4E701EB045159
:104D100010BD491001EB0451BDE810404FEA3000CE
:104D200002E04FF0000170474A0008BF0042F8D08F
:104D3000B2F5001F28BF704701F000414FF000009E
:104D400070479EEA445F07D011EA5E0FBDE810404D
:104D500004BF002100207047BDE8104070B5FFF788
:104D6000CBFE00BF40DFF63E83F0004110467047A7
:104D70000000E0FF4FF47F0C1CEAD0121EBF1CEABB
:104D8000D11392EA0C0F93EA0C0F00F0858090EAA1
:104D9000010F48BF42F4807240F4000C41F400005F
:104DA0002CF07F4120F07F4000B58142A2EB03024E
:104DB0000FF2081CACEB504EC0F100009EF800E072
:104DC0004FEA4E0E00FB0EFC38BF49004FEA2C1C88
:104DD00002F5FA020CFB0EF34FEACE1E4FEA112C3D
:104DE0004FEAC1210EEB635E42EB22420EFB0CFC4C
:104DF0004FEA1C5300FB03114FEA112C4FEA01311B
:104E00000EFB0CFC4FEADC4C00FB0C11C14228BF2E
:104E100009184CEB03335DF804EB10EB410143EB55
:104E2000C250B2F57C0F38BF704729D512F0F00F91
:104E30001CBF00F1C04000F0004070470081828339
:104E40008485868788898B8C8D8E8F919293959699
:104E500097999A9C9D9FA0A2A3A5A7A8AAACAEB023
:104E6000B2B3B5B7B9BCBEC0C2C5C7C9CCCED1D428
:104E7000D7D9DCDFE2E6E9ECF0F3F7FAFE00000058
:104E80004FEA400C0CF1807CBCF17E4F28BF70478C
:104E9000B0F1C04000F02BB990EA010F0CEAD11339
:104EA00048BF42F48072624538BF634507D213F4AD
:104EB0007F0F16D080EA010000F00040704710B567
:104EC00000F0CFF8097EFC3E00F005B880EA010052
:104ED00000F00040704780EA010000F0004000F060
:104EE00006B912F47F0F04BF0248704780EA010040
:104EF00000F0FDB80000C07FC10DD1F19E0206DBBD
:104F00004FEA002343F0004323FA02F070470042C7
:104F100007D54FEA4001B1F1FE4F02D24FF0000039
:104F2000704710B500F09DF849922480002070472A
:104F30006FEA200070470000B0FA80F310FA03F225
:104F4000C3F19D030AD0D90501EB1220530638BFE7
:104F5000704700F1010008BF20F001007047000019
:104F60004FF47F0C1CEAD0121EBF1CEAD11392EA48
:104F70000C0F93EA0C0F00F0478090EA010F48BF36
:104F800042F480724FF0004C4CEA00204CEA0121C0
:104F900002EB0302A0FB0113A2F50002002918BFD7
:104FA00043F001035B0028BF4FEA330342EB224288
:104FB0005FEA132C4CEBC2502EBFBCEB436FB2F533
:104FC0007C0F70474FEA036CBCF1004F08BF20F024
:104FD0000100B2F57C0F38BF70470BD582F0FF029D
:104FE00012F5803FC8BF704700F1C040D8BF00F045
:104FF0000040704700F5000C5FEA4C0C48BF70475A
:10500000B0F1C04000F073B890EA010F0CEAD11380
:1050100048BF42F48072624538BF634504D280EADB
:10502000010000F00040704710B500F01AF800BF12
:105030008900013E00F007B800F009B85FEA410CB2
:105040005FEA1C6C08D080EA010000F050B85FEA0B
:10505000400C5FEA1C6CF6D14FF00040A0F58000D8
:1050600070470EF1020E2EF0030E5EF8044B244240
:1050700004D44FEA4102B2F17F4F11D84FEA400306
:10508000B3F17F4F0CD80ED14FEAD07CB2F17F4FF5
:105090000CEB4C0C0CF1020C08BF4CEBD17C04E087
:1050A0004FF0080C01E04FEAD17C0CEB4C0324FAE2
:1050B00003F404F00704B4F1040C06D20EEB840CE4
:1050C000BDE810404CF0010C6047DFE80CF0070829
:1050D00002024FF00040A0F5800010BD08464200DB
:1050E00018BFD2F1807288BF00F0004010BDFF21D0
:1050F00041EAD050C0057047FBF720BD000000001A
:10510000000000000000000000000000000000F8A7
:1051100000000000000000333000000000100C060A
:10512000100C0600000000000000000040C07840A5
:10513000C0784000043F04043F040400007088FC71
:1051400008300000001820FF211E0000F008F000C9
:10515000E018000000211C031E211E0000F008883A
:10516000700000001E2123241927211010160E00A4
:10517000000000000000000000000000000000E04F
:105180001804020000000007182040000002041864
:10519000E00000000040201807000000404080F0C0
:1051A000804040000202010F01020200000000F0F6
:1051B000000000000101011F0101010000000000CA
:1051C0000000000080B0700000000000000000003F
:1051D00000000000000101010101010100000000C8
:1051E000000000000030300000000000000000005F
:1051F00080601804006018060100000000E010083C
:105200000810E000000F102020100F00001010F810
:10521000000000000020203F20200000007008084F
:1052200008887000003028242221300000300888CF
:10523000884830000018202020110E000000C020F7
:1052400010F8000000070424243F240000F8088818
:10525000880808000019212020110E0000E01088A5
:1052600088180000000F112020110E0000380808D7
:10527000C83808000000003F0000000000708808E7
:1052800008887000001C222121221C0000E0100868
:105290000810E0000000312222110F00000000C0C1
:1052A000C00000000000003030000000000000805E
:1052B000000000000000806000000000000080404E
:1052C0002010080000010204081020004040404067
:1052D00040404000040404040404040000081020BA
:1052E00040800000002010080402010000704808FF
:1052F0000808F0000000003036010000C030C82867
:10530000E810E0000718272423140B000000C03821
:10531000E0000000203C23020227382008F888889B
:1053200088700000203F202020110E00C0300808A7
:1053300008083800071820202010080008F808087E
:105340000810E000203F202020100F0008F8888877
:10535000E8081000203F20202320180008F8888843
:10536000E8081000203F200003000000C0300808BB
:105370000838000007182020221E020008F8080044
:105380000008F808203F210101213F20000808F80B
:10539000080800000020203F20200000000008082E
:1053A000F8080800C08080807F00000008F888C0EE
:1053B00028180800203F20012638200008F808009F
:1053C00000000000203F20202020300008F8F800D6
:1053D000F8F80800203F003F003F200008F830C0E8
:1053E0000008F808203F200007183F00E0100808D8
:1053F0000810E0000F10202020100F0008F8080807
:105400000808F000203F210101010000E010080819
:105410000810E0000F18242438504F0008F888883E
:1054200088887000203F2000030C3020007088081E
:10543000080838000038202121221C00180808F82C
:10544000080818000000203F2000000008F80800AD
:105450000008F808001F202020201F00087888007E
:1054600000C83808000007380E010000F80800F8EE
:105470000008F800033C0700073C03000818688098
:105480008068180820302C03032C30200838C8000E
:10549000C83808000000203F20000000100808085D
:1054A000C83808002038262120201800000000FEFF
:1054B000020202000000007F40404000000C30C0AB
:1054C00000000000000000010638C00000020202D7
:1054D000FE000000004040407F0000000000040289
:1054E00002020400000000000000000000000000B4
:1054F00000000000808080808080808000020204A4
:10550000000000000000000000000000000080809B
:10551000808000000019242222223F2008F8008009
:1055200080000000003F112020110E0000000080CC
:1055300080800000000E112020201100000000805B
:105540008088F800000E112020103F20000080808D
:1055500080800000001F222222221300008080F0A1
:10556000888888180020203F2020000000008080CC
:1055700080808000006B94949493600008F8008011
:1055800080800000203F210000203F20008098986C
:10559000000000000020203F2020000000000080CC
:1055A0009898000000C08080807F000008F800000C
:1055B00080808000203F24022D302000000808F861
:1055C000000000000020203F20200000808080801C
:1055D00080808000203F20003F20003F80800080AE
:1055E00080800000203F210000203F2000008080BC
:1055F00080800000001F202020201F00808000806D
:105600008000000080FFA12020110E00000000801B
:1056100080808000000E112020A0FF80808080000C
:105620008080800020203F21200001000000808039
:10563000808080000033242424241900008080E02E
:10564000808000000000001F2020000080800000FB
:1056500000808000001F202020103F2080808000DC
:105660000080808000010E300806010080800080EC
:10567000008080800F300C030C300F000080800011
:10568000808080000020312E0E312000808080003C
:105690000080808080818E701806010000808080EC
:1056A000808080000021302C22213000000000008A
:1056B000807C020200000000003F4040000000002B
:1056C000FF00000000000000FF0000000002027C5C
:1056D000800000000040403F000000000006010183
:1056E000020204040000000000000000B3F50808F6
:1056F00089EA1888000404FC040404FC0000020188
:1057000000FF0186402018074080403F0000CABCCF
:105710001010F01F10F00040E05847405060C000EB
:105720004022150816210000FE42424242FE0000BF
:10573000BBAF008060F807000000FF4020100804A5
:105740000000010000FF000402013F4040404040D3
:105750007800D6D00000F010101010FF10101010BC
:10576000F000000000000F04040404FF040404041B
:105770000F000000CEC21060028C0000FE929292D8
:105780009292FE00000004047E01407E42427E426E
:105790007E42427E4000B6C80000FC242424FC2542
:1057A0002624FC242424040040308F80844C55257A
:1057B0002525554C80808000C9E8404042CC0040FF
:1057C000A09E8282829EA02020000000003F908840
:1057D00040432C10284641808000D6C3001715D5C1
:1057E0005557557D555755D5151700004040407FFA
:1057F000555555555555557F40404000D7EE4040D2
:10580000C05F5555D5555555555F40404000206007
:105810003F251515FF904729112D43808000B4F3D3
:1058200020202020202020FF2020202020202000B9
:1058300080804020100C0300030C1020408080006A
:10584000D0A1000000E0000000FF00000020408028
:105850000000080403000040807F000000000001F9
:105860000E00D6B5008060F80704E4A4A4BFA4A489
:10587000E4040000010000FF40407F4A4A4A4A4ACF
:105880007F404000A3BA00000000000000000000BC
:10589000000000000000000036360000000000009C
:1058A000000000000000CAD600002424242424FCA8
:1058B0002222222322000000020202020242827FF0
:1058C0000202020202020200D7D4000000F8888C13
:1058D0008A89888888F800000000000000FF44449E
:1058E0004444444444FF00000000B6AF4044C44474
:1058F0004444401010FF101010F00000103C131032
:1059000014B840300E014080403F0000C4A3101086
:10591000D0FF9014E4AFA4A4A4AFE40400000403F7
:1059200000FF00894B2A1A0E1A2A4B888000CABD34
:10593000101090909090901010FF10101116100001
:10594000002060203F10101000030C102040F800D1
:10595000B8DF04040404F49495969494F4040404C5
:10596000040000FE02027A4A4A4A4A4A7A0282FE49
:105970000000D6D00000F010101010FF1010101012
:10598000F000000000000F04040404FF04040404F9
:105990000F000000B5CD008060F80700FC8484840F
:1059A000FE8283828000010000FF0000FF40200093
:1059B000418E3040F800B9E24040424458C0407F38
:1059C00040C05048464040008080402018070000FA
:1059D000003F404040407800D5D500FE424242FEA4
:1059E0000042A29E82A2C2BE0000806F080828CF9B
:1059F00000002FC8080828CF0000BEE0003E22E2C9
:105A0000223E00FE2222222222E20200203F201F0C
:105A10001111007F4444444444474000C0EB040457
:105A200004F484D4A5A6A4D484F40404040000FEE1
:105A30000202123A1613121A3242827E0000B6A8EF
:105A4000100C4444444445C64444444444140C00AB
:105A50008040201E2040407F444444444440400055
:105A6000CAB100FC848484FC001010101010FF10D8
:105A70001000003F1010103F0000010640807F0022
:105A80000000BCE400F8010600F0121212F202025B
:105A900002FE000000FF0000001F1111111F004056
:105AA000807F0000040000080000000000000002E9
:105AB00000010000100000000000000000000000D5
:105AC0003031323334353637383941424344454634
:105AD000403058003031323334353637383961622E
